:100000000C9446000C9465000C9465000C946500FB
:100010000C9465000C9465000C9465000C946500CC
:100020000C9465000C9465000C9465000C946500BC
:100030000C9465000C9465000C9465000C946500AC
:100040000C9465000C9465000C9465000C9465009C
:100050000C9465000C9465000C9465000C9465008C
:100060000C9465000C9465000C9465000C9465007C
:100070000C9465000C9465000C9465000C9465006C
:100080000C9465000C9465000C94650011241FBE4F
:10009000CFEFD0E1DEBFCDBF11E0A0E0B1E0ECE8F2
:1000A000FDE000E00BBF02C007900D92A639B1073A
:1000B000D9F711E0A6E9B1E001C01D92AA3AB10753
:1000C000E1F70E945D010C94C4060C94000085E0E9
:1000D00080937000E1E7F0E080818C7F8083089559
:1000E000CF93DF93E4E7F0E034EAA1E7B0E0C3E7C1
:1000F000D0E050EA44E8308320812223ECF72C91B1
:10010000287F283009F046C058834083208122236D
:10011000ECF72C91287F283171F79093730094E8C5
:1001200090937400E4E7F0E090819923ECF79091CC
:100130007100987F983281F58093730084E88093F2
:100140007400E4E7F0E080818823ECF7809171008F
:10015000887F883219F56093730084E88093740077
:10016000E4E7F0E080818823ECF780917100887FDC
:100170008832B1F484E980937400E4E7F0E0808190
:1001800084FDFDCF87EB9BE00197F1F700C00000F5
:1001900081E007C080E005C080E003C080E001C0CE
:1001A00080E0DF91CF910895CF93DF93E4E7F0E013
:1001B00034EAA1E7B0E0C3E7D0E050EA44E8308396
:1001C00020812223ECF72C91287F283009F05DC094
:1001D0005883408320812223ECF72C91287F2831FB
:1001E00071F79093730094E890937400E4E7F0E063
:1001F00090819923ECF790917100987F983209F0E3
:1002000046C08093730084E880937400E4E7F0E0D4
:1002100080818823ECF780917100887F8832C9F54E
:1002200084EA80937400E4E7F0E080818823ECF7AF
:1002300080917100887F803171F581EA809373002D
:1002400084E880937400E4E7F0E080818823ECF791
:1002500080917100887F803401F584E88093740078
:10026000E4E7F0E080818823ECF780917100887FDB
:100270008835A9F48091730094E990937400E4E7C1
:10028000F0E0908194FDFDCF0BC080E009C080E0DC
:1002900007C080E005C080E003C080E001C080E0CE
:1002A000DF91CF91089540E020E030E0C90101974F
:1002B000F1F74F5F4436D1F70895AF92BF92CF92D6
:1002C000DF92EF92FF920F931F93DF93CF93CDB7FF
:1002D000DEB760970FB6F894DEBF0FBECDBF81E0EA
:1002E0000E94E4020E94670080E090E00197F1F72D
:1002F00081E060E00E94BD0280E091E00E94130373
:1003000080E061E00E94840380E191E00E94130399
:100310000E94530181E060E00E94BD0285E191E00E
:100320000E94130300E010E0C80167E00E94700023
:100330008823E1F481E060E00E94BD0281E291E067
:100340000E94130380E061E00E94840380E391E057
:100350000E941303C80164E070E00E9423030E941E
:10036000530181E060E00E94BD0207C00F5F1F4F94
:1003700080E200301807C1F6C5C00E94530181E039
:1003800060E00E94BD028AE391E00E94130300E056
:1003900010E0C8010E94D4008730C1F081E060E025
:1003A0000E94BD0288E491E00E94130380E061E0B6
:1003B0000E94840380E391E00E941303C80164E07B
:1003C00070E00E9423030E94530107C00F5F1F4F7C
:1003D00090E200301907E9F69EC000E010E0C80185
:1003E0006DED70E00E940F06EE24FF246894E1F8A2
:1003F000E00EF11EC70162E070E00E940F06CC24FF
:10040000DD246894C2F8C00ED11EC60163E070E01E
:100410000E940F06C8010E94FC055C0190939701A1
:1004200080939601C7010E94FC05909399018093E7
:100430009801C6010E94FC0590939B0180939A014C
:1004400000D000D000D0EDB7FEB731968E010F5F1F
:100450001F4FADB7BEB712961C930E93119786E54A
:1004600091E093838283B582A4820E94B4038DB706
:100470009EB706960FB6F8949EBF0FBE8DBF81E063
:1004800060E00E94BD02C8010E9413038FEF93EC4D
:10049000A9E081509040A040E1F700C000008EE646
:1004A00090E0909397018093960187E190E06EE64B
:1004B0000E94020687E190E00E94F40500D000D07F
:1004C00000D0EDB7FEB73196ADB7BEB712961C930C
:1004D0000E93119724E631E03383228384831582BF
:1004E0000E94B4038DB79EB706960FB6F8949EBFD0
:1004F0000FBE8DBF81E060E00E94BD02C8010E9476
:100500001303FFCF81E060E00E94BD0283E791E02A
:100510000E94130332CF81E060E00E94BD0285E8B3
:1005200091E00E94130359CF87B3807F87BBAE9AB7
:10053000AF9882E08A95F1F7C49A92E09A95F1F724
:1005400086B38295807F92E09A95F1F7C49894E003
:100550009A95F1F7C49A92E09A95F1F796B392E0E2
:100560009A95F1F7C49894E09A95F1F7882324F3CB
:10057000AE9887B38F6087BB0895282F22952F7080
:100580008F70662311F4AF9801C0AF9A92E09A95EC
:10059000F1F7C49A98B3907F922B98BB94E09A9508
:1005A000F1F7C49894E09A95F1F7C49A98B3907FC4
:1005B000892B88BB84E08A95F1F7C49894E09A95DA
:1005C000F1F70E94940208951F93182F8FE399E189
:1005D000A1E081509040A040E1F700C0000087B347
:1005E0008F6087BBBC9AA79AA69A88B3807F88BB86
:1005F000C498AE98AF9800C000C0C49AC19A94E065
:100600009A95F1F7C498A4E0AA95F1F70E94940294
:10061000812F8C6060E00E94BD0288E260E00E9451
:10062000BD021F910895CF93DF93EC018881882349
:1006300039F0219661E00E94BD0289918823D1F7AB
:10064000DF91CF910895EF92FF920F931F93DF9365
:10065000CF9300D000D00F92CDB7DEB77B01FE0163
:10066000319625E0DF011D922A95E9F7009761F0A8
:10067000FE0136962AE030E0B9010E948D03829394
:10068000862F972F0097C1F7BFEFEB16BFEFFB0642
:1006900069F42981222379F4FE01329600E010E00A
:1006A0000F5F1F4F21912223D9F307C005E010E00F
:1006B0000E191F0902C000E010E0992324F48DE216
:1006C00061E00E94BD020530110594F47E0108949A
:1006D000E11CF11CE00EF11EF70181917F01805DAC
:1006E00061E00E94BD020F5F1F4F05301105A4F3AA
:1006F0000F900F900F900F900F90CF91DF911F915F
:100700000F91FF90EF900895883230F4611180646A
:10071000806860E00E94BD02089597FB092E0726BD
:100720000AD077FD04D00CD006D000201AF47095C2
:1007300061957F4F0895F6F7909581959F4F0895A5
:10074000AA1BBB1B51E107C0AA1FBB1FA617B707F7
:1007500010F0A61BB70B881F991F5A95A9F7809513
:100760009095BC01CD0108950F931F93DF93CF9314
:10077000CDB7DEB72E970FB6F894DEBF0FBECDBF54
:100780000D891E8986E08C831A8309838FEF9FE78A
:100790009E838D839E01275E3F4FCE0101966F8918
:1007A000788DA9010E94E403EF81F885E00FF11F25
:1007B00010822E960FB6F894DEBF0FBECDBFCF913C
:1007C000DF911F910F9108952F923F924F925F9268
:1007D0006F927F928F929F92AF92BF92CF92DF9251
:1007E000EF92FF920F931F93DF93CF93CDB7DEB7B6
:1007F0002C970FB6F894DEBF0FBECDBF6C011B0166
:100800008A01FC0117821682838181FFD1C12E01EA
:100810000894411C511CF6019381F10193FD8591CF
:1008200093FF81911F01882309F4BEC1853239F4F9
:1008300093FD859193FF81911F01853229F490E00A
:10084000B6010E942A06E7CFEE24FF2420E02032E2
:10085000B0F48B3269F08C3228F4803251F083325C
:1008600071F40BC08D3239F0803349F421602CC013
:100870002260246029C0286027C0206125C027FD90
:100880002CC0382F30533A3098F426FF08C08E2DF4
:10089000880FE82EEE0CEE0CE80EE30E15C08F2D3F
:1008A000880FF82EFF0CFF0CF80EF30E20620CC020
:1008B0008E3221F426FD78C1206406C08C3611F4F6
:1008C000206802C0883649F4F10193FD859193FFB9
:1008D00081911F01882309F0BACF982F9554933046
:1008E00018F09052933028F40C5F1F4FFFE3F98308
:1008F0000DC0833631F0833771F0833509F060C065
:1009000022C0F801808189830E5F1F4F420171E090
:10091000A72EB12C16C062E0662E712C600E711EDF
:10092000F8018080918026FF03C06E2D70E002C028
:100930006FEF7FEFC4012C870E941F065C018301CB
:100940002C852F7717C052E0652E712C600E711E1A
:10095000F8018080918026FF03C06E2D70E002C0F8
:100960006FEF7FEFC4012C870E9414065C012C8579
:100970002068830123FD20C008C080E290E0B6011A
:100980002C870E942A06FA942C858F2D90E0A816B9
:10099000B90698F311C0F40127FD859127FF8191D5
:1009A0004F0190E0B6012C870E942A062C85F11099
:1009B000FA940894A108B108A114B10461F7F1C038
:1009C000843611F0893649F527FF08C0F8016081A7
:1009D0007181828193810C5F1F4F09C0F801608192
:1009E0007181882777FD8095982F0E5F1F4F4FE606
:1009F000B42EB22297FF09C09095809570956195AD
:100A00007F4F8F4F9F4FF0E8BF2AA2012AE030E0CE
:100A10000E945606782E741845C0853731F43FEE93
:100A2000B32EB2222AE030E025C099EFB92EB222CF
:100A30008F36C1F0803720F4883509F0B5C00DC07D
:100A4000803721F0883709F0AFC002C020E1B22A18
:100A5000B4FE0BC084E0B82A08C0B4FE09C0E6E0CA
:100A6000BE2A06C028E030E005C020E130E002C028
:100A700020E132E0B7FE08C0F80160817181828117
:100A800093810C5F1F4F07C0F8016081718180E086
:100A900090E00E5F1F4FA2010E945606782E741838
:100AA000FFE7BF22B6FE0BC02EEFB2227E1438F451
:100AB000B4FE07C0B2FC05C08FEEB82202C0A72C5E
:100AC00001C0AE2C8B2D90E0B4FE0DC0FE01E70DF1
:100AD000F11D2081203319F4E9EEBE2209C0A39450
:100AE000B2FE06C004C086789070009709F0A39407
:100AF0008B2C9924B3FC14C0B0FE0FC0AF1428F4A3
:100B0000E72CEF0CEA18AF2C08C0E72C06C080E2F7
:100B100090E0B6010E942A06A394AF14C0F304C06B
:100B2000AF1410F4FA1801C0FF2484FE0FC080E354
:100B300090E0B6010E942A0682FE1FC081FE03C01B
:100B400088E590E010C088E790E00DC0C401867889
:100B50009070009791F081FC02C080E201C08BE2AE
:100B6000B7FC8DE290E0B6010E942A0606C080E341
:100B700090E0B6010E942A06EA947E14C0F37A94AB
:100B8000F201E70DF11D808190E0B6010E942A0676
:100B90007720A9F706C080E290E0B6010E942A06FD
:100BA000FA94FF20C1F737CEF6012681378102C0C3
:100BB0002FEF3FEFC9012C960FB6F894DEBF0FBEA2
:100BC000CDBFCF91DF911F910F91FF90EF90DF90FC
:100BD000CF90BF90AF909F908F907F906F905F90DD
:100BE0004F903F902F900895E199FECF9FBB8EBB11
:100BF000E09A99278DB30895A8E1B0E042E050E073
:100C00000C94B606262FE199FECF9FBB8EBB2DBB61
:100C10000FB6F894E29AE19A0FBE019608950E94E9
:100C20000206272F0C940306FC01059061507040CA
:100C30000110D8F7809590958E0F9F1F0895FC01A5
:100C40006150704001900110D8F7809590958E0FFB
:100C50009F1F08950F931F93CF93DF938C01EB0198
:100C60008B8181FF1BC082FF0DC02E813F818C8153
:100C70009D812817390764F4E881F9810193F9838C
:100C8000E88306C0E885F985802F0995009731F43F
:100C90008E819F8101969F838E8302C00FEF1FEF8D
:100CA000C801DF91CF911F910F910895FA01AA27F2
:100CB000283051F1203181F1E8946F936E7F6E5F9F
:100CC0007F4F8F4F9F4FAF4FB1E03ED0B4E03CD04D
:100CD000670F781F891F9A1FA11D680F791F8A1F30
:100CE000911DA11D6A0F711D811D911DA11D20D097
:100CF00009F468943F912AE0269F11243019305D51
:100D00003193DEF6CF010895462F4770405D419341
:100D1000B3E00FD0C9F7F6CF462F4F70405D4A338E
:100D200018F0495D31FD4052419302D0A9F7EACF56
:100D3000B4E0A6959795879577956795BA95C9F785
:100D400000976105710508959B01AC010A2E069478
:100D50005795479537952795BA95C9F7620F731F31
:100D6000841F951FA01D0895DC01CB01FC01E199B2
:100D7000FECF06C0FFBBEEBBE09A31960DB20D92DE
:0C0D800041505040B8F70895F894FFCFA0
:100D8C0045787465726E616C20454550524F4D002C
:100D9C0054657374005772697474696E672E2E2EC5
:100DAC00005772697465204661696C656420210086
:100DBC00416464657373203D2000566572696679E1
:100DCC00696E67202E2E2E00566572696679204654
:100DDC0061696C6564002564204578656375746988
:100DEC006F6E730025642062797465526561643D91
:100DFC003634005772697474656E2038313932623A
:100E0C0079746573005772697465205375636365F3
:060E1C00737320210000A9
:00000001FF
