:100000000C942A000C9447000C9447000C94470071
:100010000C9447000C9447000C9447000C94470044
:100020000C9447000C9447000C9447000C94470034
:100030000C9447000C9447000C9447000C94470024
:100040000C9447000C9447000C9447000C94470014
:100050000C94470011241FBECFE5D8E0DEBFCDBF12
:1000600010E0A0E6B0E0E2E5F5E002C005900D92F8
:10007000A83DB107D9F710E0A8EDB0E001C01D928E
:10008000A83DB107E1F70E9453000C94A8020C941C
:10009000000020E0E0E0F0E0CF010197F1F72F5FF2
:1000A0002436D1F70895CF93DF9381E00E94560262
:1000B0000E94E30080E090E00197F1F760E081E0CA
:1000C0000E94AB0180E690E00E94D30161E080E0F5
:1000D0000E94470280E790E00E94D3010E944900FD
:1000E00060E081E00E94AB0185E790E00E94D301CF
:1000F000C0E0D0E006C0219680E2C030D80709F405
:1001000050C067E0CE010E94E9008823A1F760E0BB
:1001100081E00E94AB0181E890E00E94D30161E0A0
:1001200080E00E94470280E990E00E94D30164E0F1
:1001300070E0CE010E94E3010E94490060E081E08E
:100140000E94AB010E94490060E081E00E94AB0187
:100150008AE990E00E94D301C0E0D0E005C021967A
:1001600080E2C030D80731F1CE010E942D018730E6
:10017000B1F360E081E00E94AB0188EA90E00E9468
:10018000D30161E080E00E94470280E990E00E9494
:10019000D30164E070E0CE010E94E3010E944900B7
:1001A000FFCF60E081E00E94AB0186EB90E00E940F
:1001B000D301C8CF60E081E00E94AB0188EC90E001
:1001C0000E94D301EDCF85E080B981B18C7F81B9E8
:1001D0000895AC0134EA20EA94E836BF06B607FE7B
:1001E000FDCF81B1887F8830A9F423B996BF06B6C8
:1001F00007FEFDCF81B1887F883179F7852F992758
:1002000083B984E886BF06B607FEFDCF81B1887F3B
:10021000883219F080E090E0089543B984E886BF01
:1002200006B607FEFDCF81B1887F883299F763B9A2
:1002300084E886BF06B607FEFDCF81B1887F88328D
:1002400049F784E986BF06B604FCFDCF80EC92E155
:100250000197F1F781E090E00895AC0134EA20EADB
:1002600094E836BF06B607FEFDCF81B1887F88309F
:10027000A9F423B996BF06B607FEFDCF81B1887FEA
:10028000883179F7852F992783B984E886BF06B628
:1002900007FEFDCF81B1887F883219F080E090E0C1
:1002A000089543B984E886BF06B607FEFDCF81B145
:1002B000887F883299F784EA86BF06B607FEFDCFAD
:1002C00081B1887F803151F781EA83B984E886BFA4
:1002D00006B607FEFDCF81B1887F8034F9F684E849
:1002E00086BF06B607FEFDCF81B1887F8835B1F69F
:1002F00093B184E986BF06B604FCFDCF892F992708
:10030000089587B3807F87BBAE9AAF9881E08A95C6
:10031000F1F721E0C49A822F8A95F1F786B382958E
:10032000807F922F9A95F1F7C498922F9A95F1F7C2
:10033000C49A922F9A95F1F796B3922F9A95F1F766
:10034000C498922F9A95F1F787FDE4CFAE9887B3C2
:100350008F6087BB0895382F662311F4AF9801C0D2
:10036000AF9A21E0822F8A95F1F7C49A88B3807FF3
:10037000932F92959F70892B88BB822F8A95F1F7D6
:10038000C498822F8A95F1F7C49A88B3807F3F7012
:10039000832B88BB822F8A95F1F7C4982A95F1F7B1
:1003A0000E9481010895CF93DF93EC018881882317
:1003B00039F061E00E94AB01219688818823C9F75A
:1003C000DF91CF910895EF92FF920F931F93CF93F8
:1003D000DF93CDB7DEB725970FB6F894DEBF0FBE1B
:1003E000CDBF9C018B017E010894E11CF11C85E0CE
:1003F000F70111928A95E9F72115310589F0FE017F
:100400003596C9016AE070E00E94810280833197CD
:10041000C9016AE070E00E9481029B01672B89F7A5
:10042000FFEF0F3F1F07B9F085E090E0801B910BB5
:1004300085309105FCF48C01E00EF11EF7018191ED
:100440007F0161E0805D0E94AB010F5F1F4F0530AF
:100450001105A4F30FC08981882349F4F701818134
:1004600031968823E1F3CF018E199F09E1CF00E097
:1004700010E0E2CF25960FB6F894DEBF0FBECDBFD9
:10048000DF91CF911F910F91FF90EF9008958832E7
:1004900030F4662329F460E080680E94AB0108957F
:1004A000806460E080680E94AB01F9CF1F93182F31
:1004B00080EE9EE20197F1F787B38F6087BBBC9A0D
:1004C000A79AA69A88B3807F88BBC498AE98AF9845
:1004D00081E0982F9A95F1F7C49AC19A982F9A952E
:1004E000F1F7C4988A95F1F70E94810160E0812FAD
:1004F0008C600E94AB0160E088E20E94AB011F911A
:10050000089597FB092E07260AD077FD04D00CD05A
:1005100006D000201AF4709561957F4F0895F6F784
:10052000909581959F4F0895AA1BBB1B51E107C071
:10053000AA1FBB1FA617B70710F0A61BB70B881F73
:10054000991F5A95A9F780959095BC01CD01089502
:02055000FFCFDB
:1005520045787465726E616C20454550524F4D006E
:1005620054657374005772697474696E672E2E2E07
:10057200005772697465204661696C6564202100C8
:10058200416464657373203D200056657269667923
:10059200696E67202E2E2E00566572696679204696
:1005A20061696C6564005772697474656E203831D4
:1005B20039326279746573005772697465205375B4
:0805C2006363657373202100DF
:00000001FF
