:100000000C9446000C945D000C945D000C945D0013
:100010000C945D000C945D000C945D000C945D00EC
:100020000C945D000C945D000C945D000C945D00DC
:100030000C945D000C945D000C945D000C945D00CC
:100040000C945D000C945D000C945D000C945D00BC
:100050000C945D000C945D000C945D000C945D00AC
:100060000C945D000C945D000C945D000C945D009C
:100070000C945D000C945D000C945D000C945D008C
:100080000C945D000C945D000C945D0011241FBE67
:10009000CFEFD0E1DEBFCDBF11E0A0E0B1E0E6EAF6
:1000A000F4E300E00BBF02C007900D92A038B10747
:1000B000D9F70E947B000C94511A0C940000DF9336
:1000C000CF9300D00F92CDB7DEB71B820BC01A8240
:1000D000198289819A810197F1F79A8389838B81AB
:1000E0008F5F8B838B81843690F30F900F900F90EE
:1000F000CF91DF910895DF93CF9300D000D00F927E
:10010000CDB7DEB781E00E94B60F0E942B011A82A4
:10011000198289819A810197F1F79A83898381E015
:1001200060E00E94120380E091E00E942A1380E0C8
:1001300061E00E94D11380E191E00E942A130E94A5
:100140005F0081E060E00E94120385E191E00E947F
:100150002A131D821C821B8227C08B819C8167E031
:100160000E943D018823D9F481E060E00E941203DF
:1001700081E291E00E942A1380E061E00E94D113A5
:1001800080E391E00E942A138B819C8164E070E0FF
:100190000E94471381E08D830E945F000BC08B811A
:1001A0009C8101969C838B838B819C8120E2803093
:1001B000920798F281E060E00E9412038D8188230B
:1001C00021F48AE391E00E942A130E945F0081E0FB
:1001D00060E00E9412038CE491E00E942A131D82C9
:1001E0001C821B8226C08B819C810E944B0287301F
:1001F000D9F081E060E00E9412038AE591E00E945C
:100200002A1380E061E00E94D11380E391E00E9414
:100210002A138B819C8164E070E00E94471381E087
:100220008D830E945F000BC08B819C8101969C8313
:100230008B838B819C8120E280309207A0F28D819C
:10024000882341F481E060E00E94120388E691E097
:100250000E942A13FFCFDF93CF93CDB7DEB7E0E73D
:10026000F0E085E08083A1E7B0E0E1E7F0E08081A5
:100270008C7F8C93CF91DF910895DF93CF93CDB78F
:10028000DEB762970FB6F894DEBF0FBECDBF988B76
:100290008F87698BE4E7F0E084EA8083E4E7F0E0AD
:1002A00080818823DCF7E1E7F0E08081882F90E00F
:1002B000887F90708830910511F01A8AE2C0E3E7D8
:1002C000F0E080EA8083E4E7F0E084E88083E4E71C
:1002D000F0E080818823DCF7E1E7F0E08081882F7F
:1002E00090E0887F907088319105A1F6E3E7F0E017
:1002F0008F859889892F99278083E4E7F0E084E847
:100300008083E4E7F0E080818823DCF7E1E7F0E038
:100310008081882F90E0887F90708832910511F05D
:100320001A8AAFC0E3E7F0E08F858083E4E7F0E06E
:1003300084E88083E4E7F0E080818823DCF7E1E76C
:10034000F0E08081882F90E0887F9070883291055E
:1003500011F01A8A96C0E3E7F0E089898083E4E728
:10036000F0E084E88083E4E7F0E080818823DCF734
:10037000E1E7F0E08081882F90E0887F90708832FC
:10038000910511F01A8A7DC0E4E7F0E084E98083EA
:10039000E4E7F0E08081882F90E080719070009712
:1003A000B9F780E090E0A0E4B1E48B879C87AD874B
:1003B000BE872B853C854D855E85CA01B9010E94AB
:1003C0009615DC01CB018F839887A987BA876F8147
:1003D000788589859A8520E030E040E85FE30E94D7
:1003E000C91788232CF481E090E09E838D833DC063
:1003F0006F81788589859A8520E03FEF4FE757E444
:100400000E94691718163CF56B857C858D859E8545
:1004100020E030E040E251E40E94C315DC01CB0152
:10042000BC01CD010E94ED13DC01CB019E838D83C5
:100430000DC01C821B828B819C810197F1F79C83EC
:100440008B838D819E8101979E838D838D819E817B
:10045000009779F714C06F81788589859A850E9405
:10046000ED13DC01CB019E838D838D819E819A8368
:10047000898389819A810197F1F79A83898381E041
:100480008A8B8A8962960FB6F894DEBF0FBECDBF05
:10049000CF91DF910895DF93CF9300D000D0CDB7F7
:1004A000DEB79B838A83E4E7F0E084EA8083E4E7B5
:1004B000F0E080818823DCF7E1E7F0E08081882F9D
:1004C00090E0887F90708830910511F01C82A2C066
:1004D000E3E7F0E080EA8083E4E7F0E084E880830B
:1004E000E4E7F0E080818823DCF7E1E7F0E0808159
:1004F000882F90E0887F907088319105A1F6E3E71E
:10050000F0E08A819B81892F99278083E4E7F0E0DE
:1005100084E88083E4E7F0E080818823DCF7E1E78A
:10052000F0E08081882F90E0887F9070883291057C
:1005300011F01C826FC0E3E7F0E08A818083E4E77A
:10054000F0E084E88083E4E7F0E080818823DCF752
:10055000E1E7F0E08081882F90E0887F907088321A
:10056000910511F01C8256C0E4E7F0E084EA808334
:10057000E4E7F0E080818823DCF7E1E7F0E08081C8
:10058000882F90E0887F90708031910511F01C8257
:1005900041C0E3E7F0E081EA8083E4E7F0E084E84B
:1005A0008083E4E7F0E080818823DCF7E1E7F0E096
:1005B0008081882F90E0887F90708034910511F0C1
:1005C0001C8228C0E4E7F0E084E88083E4E7F0E000
:1005D00080818823DCF7E1E7F0E08081882F90E0DC
:1005E000887F90708835910511F01C8213C0E3E775
:1005F000F0E080818983E4E7F0E084E98083E4E748
:10060000F0E08081882F90E0807190700097B9F7BA
:1006100089818C838C810F900F900F900F90CF91D8
:10062000DF9108950F931F93DF93CF93CDB7DEB77C
:10063000CD57D0400FB6F894DEBF0FBECDBFFE0140
:10064000E458FF4F8083FE01E358FF4F6083DE01D3
:10065000A558BF4FFE01E458FF4F808182958F70EF
:100660008C93DE01A658BF4FFE01E458FF4F8081F6
:100670008F708C93FE01E358FF4F8081882341F4F3
:10068000A5E3B0E0E5E3F0E080818F778C9307C0CD
:10069000A5E3B0E0E5E3F0E0808180688C93FE01A3
:1006A000EB58FF4F80E090E0A0E0BFE380839183B0
:1006B000A283B3838E010F581F4FFE01EB58FF4FEB
:1006C00060817181828193812EE333EC4EE25BE3A2
:1006D0000E94C315DC01CB01F80180839183A283C2
:1006E000B383FE01EF58FF4F608171818281938156
:1006F00020E030E040E85FE30E94C917882334F42B
:10070000FE01E059FF4F81E08083DCC0FE01EF581D
:10071000FF4F608171818281938120E030E04FE75B
:1007200053E40E94691718160CF0BCC0FE01EB5888
:10073000FF4F608171818281938120E030E04AE740
:1007400054E40E94BD16DC01CB01FE01E459FF4FC9
:1007500080839183A283B3838E0108591F4FFE01CA
:10076000E459FF4F2081318142815381CA01B9018F
:100770000E949615DC01CB01F80180839183A2834E
:10078000B383FE01E859FF4F6081718182819381BB
:1007900020E030E040E85FE30E94C917882344F47A
:1007A000FE01EA59FF4F81E090E09183808362C0AF
:1007B000FE01E859FF4F608171818281938120E0C1
:1007C0003FEF4FE757E40E94691718160CF041C03D
:1007D000FE01E459FF4F608171818281938120E0A5
:1007E00030E040E251E40E94C315DC01CB018E01F0
:1007F0000A591F4FBC01CD010E94ED13DC01CB0152
:10080000F801918380831DC0FE01EC59FF4F1182D6
:100810001082FE01EC59FF4F808191810197F1F721
:10082000FE01EC59FF4F91838083DE01AA59BF4F2F
:10083000FE01EA59FF4F80819181019711969C93A7
:100840008E93FE01EA59FF4F808191810097E1F676
:100850004BC08E010A591F4FFE01E859FF4F6081BE
:100860007181828193810E94ED13DC01CB01F8013B
:1008700091838083DE01AE59BF4FFE01EA59FF4FDD
:100880008081918111969C938E93FE01EE59FF4FCA
:10089000808191810197F1F7FE01EE59FF4F91831D
:1008A000808322C08E0100591F4FFE01EF58FF4F79
:1008B00060817181828193810E94ED13DC01CB0103
:1008C000F8018083DE01AF59BF4FFE01E059FF4FB1
:1008D00080818C93FE01EF59FF4F80818A95F1F75B
:1008E000FE01EF59FF4F8083A8E3B0E0E8E3F0E0BA
:1008F000808180618C93E8E3F0E08081982F907F85
:10090000FE01E558FF4F8081892BFE01E758FF4F1C
:100910008083A8E3B0E0FE01E758FF4F80818C930D
:10092000FE01E35AFF4F80E090E0A0E8BFE3808340
:100930009183A283B3838E01075A1F4FFE01E35AAE
:10094000FF4F60817181828193812EE333EC4EE20F
:100950005BE30E94C315DC01CB01F8018083918326
:10096000A283B383FE01E75AFF4F608171818281C8
:10097000938120E030E040E85FE30E94C9178823BC
:1009800034F4FE01E85AFF4F81E08083DCC0FE01B1
:10099000E75AFF4F608171818281938120E030E0CE
:1009A0004FE753E40E94691718160CF0BCC0FE0113
:1009B000E35AFF4F608171818281938120E030E0B2
:1009C0004AE754E40E94BD16DC01CB01FE01EC5A5B
:1009D000FF4F80839183A283B3838E01005B1F4FFF
:1009E000FE01EC5AFF4F2081318142815381CA01BF
:1009F000B9010E949615DC01CB01F8018083918337
:100A0000A283B383FE01E05BFF4F6081718182812D
:100A1000938120E030E040E85FE30E94C91788231B
:100A200044F4FE01E25BFF4F81E090E0918380831C
:100A300062C0FE01E05BFF4F608171818281938122
:100A400020E03FEF4FE757E40E94691718160CF0BB
:100A500041C0FE01EC5AFF4F608171818281938118
:100A600020E030E040E251E40E94C315DC01CB01FC
:100A70008E01025B1F4FBC01CD010E94ED13DC0112
:100A8000CB01F801918380831DC0FE01E45BFF4F21
:100A900011821082FE01E45BFF4F808191810197FA
:100AA000F1F7FE01E45BFF4F91838083DE01A25BDF
:100AB000BF4FFE01E25BFF4F80819181019711964C
:100AC0009C938E93FE01E25BFF4F808191810097A2
:100AD000E1F64BC08E01025B1F4FFE01E05BFF4F52
:100AE00060817181828193810E94ED13DC01CB01D1
:100AF000F80191838083DE01A65BBF4FFE01E25BBC
:100B0000FF4F8081918111969C938E93FE01E65B4D
:100B1000FF4F808191810197F1F7FE01E65BFF4F66
:100B20009183808322C08E01085A1F4FFE01E75A2D
:100B3000FF4F60817181828193810E94ED13DC01FE
:100B4000CB01F8018083DE01A75BBF4FFE01E85AAD
:100B5000FF4F80818C93FE01E75BFF4F80818A9578
:100B6000F1F7FE01E75BFF4F8083A8E3B0E0E8E325
:100B7000F0E080818F7E8C93FE01EB5BFF4F80E085
:100B800090E0A0E8BFE380839183A283B3838E01CA
:100B90000F5B1F4FFE01EB5BFF4F60817181828114
:100BA00093812EE333EC4EE25BE30E94C315DC013C
:100BB000CB01F80180839183A283B383FE01EF5BB5
:100BC000FF4F608171818281938120E030E040E8B5
:100BD0005FE30E94C917882334F481E0FE01E05CE2
:100BE000FF4F808399C0FE01EF5BFF4F60817181F1
:100BF0008281938120E030E04FE753E40E9469173F
:100C000018160CF07AC0FE01EB5BFF4F608171811A
:100C10008281938120E030E04AE754E40E94BD16CF
:100C2000DC01CB018CAF9DAFAEAFBFAF2CAD3DAD06
:100C30004EAD5FADCA01B9010E949615DC01CB0132
:100C400088AF99AFAAAFBBAF68AD79AD8AAD9BADA8
:100C500020E030E040E85FE30E94C91788232CF4CD
:100C600081E090E09FAB8EAB3DC068AD79AD8AADC1
:100C70009BAD20E03FEF4FE757E40E94691718163D
:100C80003CF56CAD7DAD8EAD9FAD20E030E040E237
:100C900051E40E94C315DC01CB01BC01CD010E94CF
:100CA000ED13DC01CB019FAB8EAB0DC01DAA1CAABE
:100CB0008CA99DA90197F1F79DAB8CAB8EA99FA93B
:100CC00001979FAB8EAB8EA99FA9009779F72DC096
:100CD00068AD79AD8AAD9BAD0E94ED13DC01CB010F
:100CE0009FAB8EAB8EA99FA99BAB8AAB8AA99BA910
:100CF0000197F1F79BAB8AAB18C0FE01EF5BFF4F8A
:100D000060817181828193810E94ED13DC01CB01AE
:100D1000FE01E05CFF4F8083FE01E05CFF4F8081BD
:100D200089AB89A98A95F1F789ABA8E3B0E0E8E33C
:100D3000F0E0808180618C93E8E3F0E08081982F7F
:100D4000907FFE01E658FF4F8081892BFE01E75816
:100D5000FF4F8083A8E3B0E0FE01E758FF4F80819A
:100D60008C9380E090E0A0E8BFE38DA79EA7AFA79B
:100D7000B8AB6DA57EA58FA598A92EE333EC4EE206
:100D80005BE30E94C315DC01CB0189A79AA7ABA73F
:100D9000BCA769A57AA58BA59CA520E030E040E81A
:100DA0005FE30E94C91788231CF481E088A78DC0E7
:100DB00069A57AA58BA59CA520E030E04FE753E418
:100DC0000E94691718160CF077C06DA57EA58FA537
:100DD00098A920E030E04AE754E40E94BD16DC0107
:100DE000CB018CA39DA3AEA3BFA32CA13DA14EA17B
:100DF0005FA1CA01B9010E949615DC01CB0188A34D
:100E000099A3AAA3BBA368A179A18AA19BA120E071
:100E100030E040E85FE30E94C91788232CF481E0AA
:100E200090E09F8F8E8F3DC068A179A18AA19BA180
:100E300020E03FEF4FE757E40E94691718163CF592
:100E40006CA17DA18EA19FA120E030E040E251E4A1
:100E50000E94C315DC01CB01BC01CD010E94ED1342
:100E6000DC01CB019F8F8E8F0DC01D8E1C8E8C8D53
:100E70009D8D0197F1F79D8F8C8F8E8D9F8D0197A2
:100E80009F8F8E8F8E8D9F8D009779F724C068A1DC
:100E900079A18AA19BA10E94ED13DC01CB019F8F58
:100EA0008E8F8E8D9F8D9B8F8A8F8A8D9B8D0197C4
:100EB000F1F79B8F8A8F0FC069A57AA58BA59CA59A
:100EC0000E94ED13DC01CB0188A788A5898F898D4D
:100ED0008A95F1F7898FA8E3B0E0E8E3F0E080813C
:100EE0008F7E8C9380E090E0A0E8BFE38D8B9E8B9B
:100EF000AF8BB88F6D897E898F89988D2EE333EC07
:100F00004EE25BE30E94C315DC01CB01898B9A8B17
:100F1000AB8BBC8B69897A898B899C8920E030E016
:100F200040E85FE30E94C91788231CF481E0888BA6
:100F30008DC069897A898B899C8920E030E04FE7F0
:100F400053E40E94691718160CF077C06D897E89EA
:100F50008F89988D20E030E04AE754E40E94BD1666
:100F6000DC01CB018C879D87AE87BF872C853D85B3
:100F70004E855F85CA01B9010E949615DC01CB013F
:100F800088879987AA87BB87688579858A859B85A5
:100F900020E030E040E85FE30E94C91788232CF48A
:100FA00081E090E09F838E833DC0688579858A8546
:100FB0009B8520E03FEF4FE757E40E946917181622
:100FC0003CF56C857D858E859F8520E030E040E294
:100FD00051E40E94C315DC01CB01BC01CD010E948C
:100FE000ED13DC01CB019F838E830DC01D821C821B
:100FF0008C819D810197F1F79D838C838E819F81E8
:1010000001979F838E838E819F81009779F724C0FB
:10101000688579858A859B850E94ED13DC01CB016B
:101020009F838E838E819F819B838A838A819B810C
:101030000197F1F79B838A830FC069897A898B892D
:101040009C890E94ED13DC01CB01888B8889898300
:1010500089818A95F1F789830E943A08C358DF4F46
:101060000FB6F894DEBF0FBECDBFCF91DF911F91B9
:101070000F9108950F931F93DF93CF93CDB7DEB7F2
:10108000CB5AD0400FB6F894DEBF0FBECDBFFE01E5
:10109000E655FF4F1082A7E3B0E0E7E3F0E0808180
:1010A000807F8C93A5E3B0E0E5E3F0E0808180648D
:1010B0008C93A5E3B0E0E5E3F0E080818F778C933B
:1010C000FE01EB55FF4F80E090E0A0E0BFE380839E
:1010D0009183A283B3838E010F551F4FFE01EB5501
:1010E000FF4F60817181828193812EE333EC4EE268
:1010F0005BE30E94C315DC01CB01F801808391837F
:10110000A283B383FE01EF55FF4F6081718182811D
:10111000938120E030E040E85FE30E94C917882314
:1011200034F4FE01E056FF4F81E08083DCC0FE0115
:10113000EF55FF4F608171818281938120E030E023
:101140004FE753E40E94691718160CF0BCC0FE016B
:10115000EB55FF4F608171818281938120E030E007
:101160004AE754E40E94BD16DC01CB01FE01E456BF
:10117000FF4F80839183A283B3838E0108561F4F54
:10118000FE01E456FF4F2081318142815381CA0123
:10119000B9010E949615DC01CB01F801808391838F
:1011A000A283B383FE01E856FF4F60817181828183
:1011B000938120E030E040E85FE30E94C917882374
:1011C00044F4FE01EA56FF4F81E090E09183808372
:1011D00062C0FE01E856FF4F608171818281938178
:1011E00020E03FEF4FE757E40E94691718160CF014
:1011F00041C0FE01E456FF4F60817181828193817D
:1012000020E030E040E251E40E94C315DC01CB0154
:101210008E010A561F4FBC01CD010E94ED13DC0167
:10122000CB01F801918380831DC0FE01EC56FF4F76
:1012300011821082FE01EC56FF4F8081918101974F
:10124000F1F7FE01EC56FF4F91838083DE01AA5631
:10125000BF4FFE01EA56FF4F8081918101971196A1
:101260009C938E93FE01EA56FF4F808191810097F7
:10127000E1F64BC08E010A561F4FFE01E856FF4FA4
:1012800060817181828193810E94ED13DC01CB0129
:10129000F80191838083DE01AE56BF4FFE01EA560E
:1012A000FF4F8081918111969C938E93FE01EE56A3
:1012B000FF4F808191810197F1F7FE01EE56FF4FBC
:1012C0009183808322C08E0100561F4FFE01EF558F
:1012D000FF4F60817181828193810E94ED13DC0157
:1012E000CB01F8018083DE01AF56BF4FFE01E0560F
:1012F000FF4F80818C93FE01EF56FF4F80818A95CE
:10130000F1F7FE01EF56FF4F8083A8E3B0E0E8E37A
:10131000F0E0808180618C93FE01E357FF4F80E015
:1013200090E0A0E0BFE380839183A283B3838E012A
:1013300007571F4FFE01E357FF4F60817181828184
:1013400093812EE333EC4EE25BE30E94C315DC0194
:10135000CB01F80180839183A283B383FE01E75719
:10136000FF4F608171818281938120E030E040E80D
:101370005FE30E94C917882334F4FE01E857FF4F4A
:1013800081E08083DCC0FE01E757FF4F60817181FF
:101390008281938120E030E04FE753E40E94691797
:1013A00018160CF0BCC0FE01E357FF4F608171813D
:1013B0008281938120E030E04AE754E40E94BD1628
:1013C000DC01CB01FE01EC57FF4F80839183A283A8
:1013D000B3838E0100581F4FFE01EC57FF4F208151
:1013E000318142815381CA01B9010E949615DC0105
:1013F000CB01F80180839183A283B383FE01E0587F
:10140000FF4F608171818281938120E030E040E86C
:101410005FE30E94C917882344F4FE01E258FF4F9E
:1014200081E090E09183808362C0FE01E058FF4F2D
:10143000608171818281938120E03FEF4FE757E423
:101440000E94691718160CF041C0FE01EC57FF4FBF
:10145000608171818281938120E030E040E251E43B
:101460000E94C315DC01CB018E0102581F4FBC0145
:10147000CD010E94ED13DC01CB01F8019183808343
:101480001DC0FE01E458FF4F11821082FE01E45896
:10149000FF4F808191810197F1F7FE01E458FF4FE2
:1014A00091838083DE01A258BF4FFE01E258FF4FB7
:1014B00080819181019711969C938E93FE01E25851
:1014C000FF4F808191810097E1F64BC08E01025859
:1014D0001F4FFE01E058FF4F60817181828193812F
:1014E0000E94ED13DC01CB01F80191838083DE01C2
:1014F000A658BF4FFE01E258FF4F8081918111969F
:101500009C938E93FE01E658FF4F80819181019755
:10151000F1F7FE01E658FF4F9183808322C08E01D0
:1015200008571F4FFE01E757FF4F6081718182818D
:1015300093810E94ED13DC01CB01F8018083DE0171
:10154000A758BF4FFE01E857FF4F80818C93FE01E3
:10155000E758FF4F80818A95F1F7FE01E758FF4F6A
:101560008083E6E3F0E0DE01A655BF4F80818C93D7
:10157000DE01A655BF4FFE01E655FF4F80818295E3
:10158000807F8C93FE01EB58FF4F80E090E0A0E05D
:10159000BFE380839183A283B3838E010F581F4FD3
:1015A000FE01EB58FF4F60817181828193812EE3B0
:1015B00033EC4EE25BE30E94C315DC01CB01F80182
:1015C00080839183A283B383FE01EF58FF4F608134
:1015D00071818281938120E030E040E85FE30E94E6
:1015E000C917882334F4FE01E059FF4F81E080835E
:1015F000DCC0FE01EF58FF4F6081718182819381D1
:1016000020E030E04FE753E40E94691718160CF011
:10161000BCC0FE01EB58FF4F6081718182819381D4
:1016200020E030E04AE754E40E94BD16DC01CB0123
:10163000FE01E459FF4F80839183A283B3838E011F
:1016400008591F4FFE01E459FF4F2081318142812B
:101650005381CA01B9010E949615DC01CB01F80142
:1016600080839183A283B383FE01E859FF4F608199
:1016700071818281938120E030E040E85FE30E9445
:10168000C917882344F4FE01EA59FF4F81E090E036
:101690009183808362C0FE01E859FF4F60817181B0
:1016A0008281938120E03FEF4FE757E40E94691762
:1016B00018160CF041C0FE01E459FF4F60817181A2
:1016C0008281938120E030E040E251E40E94C31522
:1016D000DC01CB018E010A591F4FBC01CD010E94D4
:1016E000ED13DC01CB01F801918380831DC0FE0165
:1016F000EC59FF4F11821082FE01EC59FF4F80819F
:1017000091810197F1F7FE01EC59FF4F918380839E
:10171000DE01AA59BF4FFE01EA59FF4F8081918136
:10172000019711969C938E93FE01EA59FF4F808199
:1017300091810097E1F64BC08E010A591F4FFE01BF
:10174000E859FF4F60817181828193810E94ED137E
:10175000DC01CB01F80191838083DE01AE59BF4FDC
:10176000FE01EA59FF4F8081918111969C938E93DF
:10177000FE01EE59FF4F808191810197F1F7FE0143
:10178000EE59FF4F9183808322C08E0100591F4F75
:10179000FE01EF58FF4F60817181828193810E9429
:1017A000ED13DC01CB01F8018083DE01AF59BF4F9F
:1017B000FE01E059FF4F80818C93FE01EF59FF4FEE
:1017C00080818A95F1F7FE01EF59FF4F8083A8E3EE
:1017D000B0E0E8E3F0E080818F7E8C93FE01E35A75
:1017E000FF4F80E090E0A0E8BFE380839183A28375
:1017F000B3838E01075A1F4FFE01E35AFF4F6081EA
:101800007181828193812EE333EC4EE25BE30E948F
:10181000C315DC01CB01F80180839183A283B383DC
:10182000FE01E75AFF4F608171818281938120E040
:1018300030E040E85FE30E94C917882334F4FE01DA
:10184000E85AFF4F81E08083DCC0FE01E75AFF4F7A
:10185000608171818281938120E030E04FE753E421
:101860000E94691718160CF0BCC0FE01E35AFF4F26
:10187000608171818281938120E030E04AE754E405
:101880000E94BD16DC01CB01FE01EC5AFF4F8083A4
:101890009183A283B3838E01005B1F4FFE01EC5A3C
:1018A000FF4F2081318142815381CA01B9010E94D9
:1018B0009615DC01CB01F80180839183A283B38369
:1018C000FE01E05BFF4F608171818281938120E0A6
:1018D00030E040E85FE30E94C917882344F4FE012A
:1018E000E25BFF4F81E090E09183808362C0FE0164
:1018F000E05BFF4F608171818281938120E03FEF47
:101900004FE757E40E94691718160CF041C0FE011A
:10191000EC5AFF4F608171818281938120E030E039
:1019200040E251E40E94C315DC01CB018E01025B51
:101930001F4FBC01CD010E94ED13DC01CB01F8016A
:10194000918380831DC0FE01E45BFF4F11821082F2
:10195000FE01E45BFF4F808191810197F1F7FE0169
:10196000E45BFF4F91838083DE01A25BBF4FFE01EA
:10197000E25BFF4F80819181019711969C938E933A
:10198000FE01E25BFF4F808191810097E1F64BC041
:101990008E01025B1F4FFE01E05BFF4F6081718192
:1019A000828193810E94ED13DC01CB01F8019183C8
:1019B0008083DE01A65BBF4FFE01E25BFF4F8081AB
:1019C000918111969C938E93FE01E65BFF4F80817F
:1019D00091810197F1F7FE01E65BFF4F91838083D0
:1019E00022C08E01085A1F4FFE01E75AFF4F608147
:1019F0007181828193810E94ED13DC01CB01F8019A
:101A00008083DE01A75BBF4FFE01E85AFF4F808154
:101A10008C93FE01E75BFF4F80818A95F1F7FE0111
:101A2000E75BFF4F8083A8E3B0E0E8E3F0E080816C
:101A300080618C93FE01EB5BFF4F80E090E0A0E0C3
:101A4000BFE380839183A283B3838E010F5B1F4F1B
:101A5000FE01EB5BFF4F60817181828193812EE3F8
:101A600033EC4EE25BE30E94C315DC01CB01F801CD
:101A700080839183A283B383FE01EF5BFF4F60817C
:101A800071818281938120E030E040E85FE30E9431
:101A9000C917882334F481E0FE01E05CFF4F8083A6
:101AA00099C0FE01EF5BFF4F60817181828193815C
:101AB00020E030E04FE753E40E94691718160CF05D
:101AC0007AC0FE01EB5BFF4F60817181828193815F
:101AD00020E030E04AE754E40E94BD16DC01CB016F
:101AE0008CAF9DAFAEAFBFAF2CAD3DAD4EAD5FADDA
:101AF000CA01B9010E949615DC01CB0188AF99AFEC
:101B0000AAAFBBAF68AD79AD8AAD9BAD20E030E048
:101B100040E85FE30E94C91788232CF481E090E03D
:101B20009FAB8EAB3DC068AD79AD8AAD9BAD20E07B
:101B30003FEF4FE757E40E94691718163CF56CAD6C
:101B40007DAD8EAD9FAD20E030E040E251E40E94DB
:101B5000C315DC01CB01BC01CD010E94ED13DC01FA
:101B6000CB019FAB8EAB0DC01DAA1CAA8CA99DA951
:101B70000197F1F79DAB8CAB8EA99FA901979FAB05
:101B80008EAB8EA99FA9009779F72DC068AD79AD6E
:101B90008AAD9BAD0E94ED13DC01CB019FAB8EABF8
:101BA0008EA99FA99BAB8AAB8AA99BA90197F1F744
:101BB0009BAB8AAB18C0FE01EF5BFF4F6081718168
:101BC000828193810E94ED13DC01CB01FE01E05C78
:101BD000FF4F8083FE01E05CFF4F808189AB89A9C4
:101BE0008A95F1F789ABE6E3F0E0DE01A755BF4F38
:101BF00080818C93DE01A755BF4FFE01E755FF4F53
:101C000080818F708C939E0126553F4FFE01E655D3
:101C1000FF4FDE01A755BF4F90818C91892BF901B1
:101C20008083DE01A555BF4FFE01E655FF4F808141
:101C300080788C9380E090E0A0E0BFE38DA79EA722
:101C4000AFA7B8AB6DA57EA58FA598A92EE333EC01
:101C50004EE25BE30E94C315DC01CB0189A79AA782
:101C6000ABA7BCA769A57AA58BA59CA520E030E011
:101C700040E85FE30E94C91788231CF481E088A72D
:101C80008DC069A57AA58BA59CA520E030E04FE723
:101C900053E40E94691718160CF077C06DA57EA555
:101CA0008FA598A920E030E04AE754E40E94BD16D1
:101CB000DC01CB018CA39DA3AEA3BFA32CA13DA1AE
:101CC0004EA15FA1CA01B9010E949615DC01CB01AA
:101CD00088A399A3AAA3BBA368A179A18AA19BA168
:101CE00020E030E040E85FE30E94C91788232CF42D
:101CF00081E090E09F8F8E8F3DC068A179A18AA17D
:101D00009BA120E03FEF4FE757E40E9469171816A8
:101D10003CF56CA17DA18EA19FA120E030E040E2C6
:101D200051E40E94C315DC01CB01BC01CD010E942E
:101D3000ED13DC01CB019F8F8E8F0DC01D8E1C8E8D
:101D40008C8D9D8D0197F1F79D8F8C8F8E8D9F8D42
:101D500001979F8F8E8F8E8D9F8D009779F724C06E
:101D600068A179A18AA19BA10E94ED13DC01CB019E
:101D70009F8F8E8F8E8D9F8D9B8F8A8F8A8D9B8D4F
:101D80000197F1F79B8F8A8F0FC069A57AA58BA564
:101D90009CA50E94ED13DC01CB0188A788A5898F43
:101DA000898D8A95F1F7898FA8E3B0E0E8E3F0E048
:101DB00080818F7E8C9380E090E0A0E8BFE38D8BE4
:101DC0009E8BAF8BB88F6D897E898F89988D2EE31E
:101DD00033EC4EE25BE30E94C315DC01CB01898B3F
:101DE0009A8BAB8BBC8B69897A898B899C8920E023
:101DF00030E040E85FE30E94C91788231CF481E0CB
:101E0000888B8DC069897A898B899C8920E030E034
:101E10004FE753E40E94691718160CF077C06D89DC
:101E20007E898F89988D20E030E04AE754E40E9453
:101E3000BD16DC01CB018C879D87AE87BF872C85C3
:101E40003D854E855F85CA01B9010E949615DC016A
:101E5000CB0188879987AA87BB87688579858A851A
:101E60009B8520E030E040E85FE30E94C9178823AB
:101E70002CF481E090E09F838E833DC06885798556
:101E80008A859B8520E03FEF4FE757E40E94691762
:101E900018163CF56C857D858E859F8520E030E0A9
:101EA00040E251E40E94C315DC01CB01BC01CD012D
:101EB0000E94ED13DC01CB019F838E830DC01D8238
:101EC0001C828C819D810197F1F79D838C838E818B
:101ED0009F8101979F838E838E819F81009779F7E1
:101EE00024C0688579858A859B850E94ED13DC0175
:101EF000CB019F838E838E819F819B838A838A817E
:101F00009B810197F1F79B838A830FC069897A8946
:101F10008B899C890E94ED13DC01CB01888B888919
:101F2000898389818A95F1F78983FE01E555FF4F01
:101F30008081882309F0E9C9A5E3B0E0E5E3F0E09A
:101F400080818F7B8C93A7E3B0E0E7E3F0E08081B2
:101F50008F608C93C555DF4F0FB6F894DEBF0FBE70
:101F6000CDBFCF91DF911F910F9108950F931F93D4
:101F7000DF93CF93CDB7DEB7C755D0400FB6F894F7
:101F8000DEBF0FBECDBFFE01E95AFF4F8083FE01C9
:101F9000ED5AFF4F80E090E0A0EFB1E480839183A1
:101FA000A283B3838E01015B1F4FFE01ED5AFF4FE9
:101FB0002081318142815381CA01B9010E94961565
:101FC000DC01CB01F80180839183A283B383FE01FE
:101FD000E15BFF4F608171818281938120E030E07D
:101FE00040E85FE30E94C917882344F4FE01E35BE5
:101FF000FF4F81E090E09183808362C0FE01E15B4E
:10200000FF4F608171818281938120E03FEF4FE734
:1020100057E40E94691718160CF041C0FE01ED5AF2
:10202000FF4F608171818281938120E030E040E246
:1020300051E40E94C315DC01CB018E01035B1F4FED
:10204000BC01CD010E94ED13DC01CB01F8019183AD
:1020500080831DC0FE01E55BFF4F11821082FE01EF
:10206000E55BFF4F808191810197F1F7FE01E55B10
:10207000FF4F91838083DE01A35BBF4FFE01E35BD3
:10208000FF4F80819181019711969C938E93FE0161
:10209000E35BFF4F808191810097E1F627C08E01BD
:1020A000035B1F4FFE01E15BFF4F60817181828105
:1020B00093810E94ED13DC01CB01F80191838083B1
:1020C000DE01A75BBF4FFE01E35BFF4F8081918183
:1020D0008D939C93FE01E75BFF4F80819181019777
:1020E000F1F7FE01E75BFF4F91838083A7E3B0E048
:1020F000E7E3F0E080818F608C93A7E3B0E0E7E353
:10210000F0E0808180618C93A4E3B0E0E4E3F0E050
:10211000808180688C93A4E3B0E0E4E3F0E0808108
:1021200080648C93A8E3B0E0E8E3F0E08081807FF6
:102130008C93A8E3B0E0E8E3F0E080818F7E8C939D
:10214000A5E3B0E0E5E3F0E080818F7B8C93A5E32D
:10215000B0E0E5E3F0E080818F778C93FE01EB5BEC
:10216000FF4F8AE999E9A9E9BEE380839183A283BD
:10217000B3838E010F5B1F4FFE01EB5BFF4F60814E
:102180007181828193812EE333EC4EE25BE30E9406
:10219000C315DC01CB01F80180839183A283B38353
:1021A000FE01EF5BFF4F608171818281938120E0AE
:1021B00030E040E85FE30E94C917882334F481E0EF
:1021C000FE01E05CFF4F808399C0FE01EF5BFF4F93
:1021D000608171818281938120E030E04FE753E498
:1021E0000E94691718160CF07AC0FE01EB5BFF4FD6
:1021F000608171818281938120E030E04AE754E47C
:102200000E94BD16DC01CB018CAF9DAFAEAFBFAF5E
:102210002CAD3DAD4EAD5FADCA01B9010E94961522
:10222000DC01CB0188AF99AFAAAFBBAF68AD79AD88
:102230008AAD9BAD20E030E040E85FE30E94C91723
:1022400088232CF481E090E09FAB8EAB3DC068AD5D
:1022500079AD8AAD9BAD20E03FEF4FE757E40E9498
:10226000691718163CF56CAD7DAD8EAD9FAD20E0C5
:1022700030E040E251E40E94C315DC01CB01BC0117
:10228000CD010E94ED13DC01CB019FAB8EAB0DC0E5
:102290001DAA1CAA8CA99DA90197F1F79DAB8CAB37
:1022A0008EA99FA901979FAB8EAB8EA99FA900977E
:1022B00079F72DC068AD79AD8AAD9BAD0E94ED1365
:1022C000DC01CB019FAB8EAB8EA99FA99BAB8AABE8
:1022D0008AA99BA90197F1F79BAB8AAB18C0FE01B5
:1022E000EF5BFF4F60817181828193810E94ED13CA
:1022F000DC01CB01FE01E05CFF4F8083FE01E05C6E
:10230000FF4F808189AB89A98A95F1F789ABA8E352
:10231000B0E0E8E3F0E0808180618C93A8E3B0E076
:10232000E8E3F0E0808182608C9380E090E0A0E8B8
:10233000BFE38DA79EA7AFA7B8AB6DA57EA58FA560
:1023400098A92EE333EC4EE25BE30E94C315DC0157
:10235000CB0189A79AA7ABA7BCA769A57AA58BA52E
:102360009CA520E030E040E85FE30E94C917882385
:102370001CF481E088A78DC069A57AA58BA59CA5D2
:1023800020E030E04FE753E40E94691718160CF084
:1023900077C06DA57EA58FA598A920E030E04AE71B
:1023A00054E40E94BD16DC01CB018CA39DA3AEA317
:1023B000BFA32CA13DA14EA15FA1CA01B9010E94FA
:1023C0009615DC01CB0188A399A3AAA3BBA368A19E
:1023D00079A18AA19BA120E030E040E85FE30E9460
:1023E000C91788232CF481E090E09F8F8E8F3DC029
:1023F00068A179A18AA19BA120E03FEF4FE757E4B4
:102400000E94691718163CF56CA17DA18EA19FA1B1
:1024100020E030E040E251E40E94C315DC01CB0132
:10242000BC01CD010E94ED13DC01CB019F8F8E8F8B
:102430000DC01D8E1C8E8C8D9D8D0197F1F79D8F8B
:102440008C8F8E8D9F8D01979F8F8E8F8E8D9F8D00
:10245000009779F724C068A179A18AA19BA10E9465
:10246000ED13DC01CB019F8F8E8F8E8D9F8D9B8F07
:102470008A8F8A8D9B8D0197F1F79B8F8A8F0FC072
:1024800069A57AA58BA59CA50E94ED13DC01CB0163
:1024900088A788A5898F898D8A95F1F7898FA8E308
:1024A000B0E0E8E3F0E080818F7E8C9380E090E004
:1024B000A0E8BFE38D8B9E8BAF8BB88F6D897E8933
:1024C0008F89988D2EE333EC4EE25BE30E94C315B7
:1024D000DC01CB01898B9A8BAB8BBC8B69897A89A8
:1024E0008B899C8920E030E040E85FE30E94C917B7
:1024F00088231CF481E0888B8DC069897A898B8957
:102500009C8920E030E04FE753E40E9469171816D9
:102510000CF077C06D897E898F89988D20E030E03E
:102520004AE754E40E94BD16DC01CB018C879D87ED
:10253000AE87BF872C853D854E855F85CA01B90171
:102540000E949615DC01CB0188879987AA87BB87F3
:10255000688579858A859B8520E030E040E85FE3E7
:102560000E94C91788232CF481E090E09F838E831A
:102570003DC0688579858A859B8520E03FEF4FE7E0
:1025800057E40E94691718163CF56C857D858E8589
:102590009F8520E030E040E251E40E94C315DC0159
:1025A000CB01BC01CD010E94ED13DC01CB019F8367
:1025B0008E830DC01D821C828C819D810197F1F755
:1025C0009D838C838E819F8101979F838E838E81D3
:1025D0009F81009779F724C0688579858A859B85D6
:1025E0000E94ED13DC01CB019F838E838E819F813E
:1025F0009B838A838A819B810197F1F79B838A83DE
:102600000FC069897A898B899C890E94ED13DC014E
:10261000CB01888B8889898389818A95F1F78983A1
:102620000E943A08FE01E95AFF4F80818C6060E009
:102630000E94120388E260E00E941203C95ADF4F31
:102640000FB6F894DEBF0FBECDBFCF91DF911F91C3
:102650000F910895DF93CF9300D0CDB7DEB79A8363
:1026600089830BC0E981FA81808161E00E941203B5
:1026700089819A8101969A838983E981FA8180818F
:10268000882381F70F900F90CF91DF910895DF930A
:10269000CF93CDB7DEB72D970FB6F894DEBF0FBE40
:1026A000CDBF9B878A877D876C8785E0FE01359645
:1026B000DF01282F1D922A95E9F784E090E09C83A2
:1026C0008B831A8219821EC0EB81FC818A859B85CF
:1026D0002AE030E0B9010E94F319282FCE010596B7
:1026E000E80FF91F20838A859B852AE030E0B90135
:1026F0000E94F319CB019B878A878B819C8101976C
:102700009C838B838A859B850097F1F68C859D85BC
:10271000AFEF8F3F9A0789F405C089819A810196AE
:102720009A83898329813A81CE010596FC01E20FC3
:10273000F31F8081882389F308C085E090E02C8511
:102740003D85821B930B9A8389838A859B85992378
:1027500024F48DE261E00E94120389819A819C83B6
:102760008B8311C02B813C81CE010596FC01E20FC9
:10277000F31F8081805D61E00E9412038B819C8148
:1027800001969C838B838B819C818530910554F3CA
:102790002D960FB6F894DEBF0FBECDBFCF91DF915F
:1027A0000895DF93CF9300D0CDB7DEB789836A83D6
:1027B0008981883268F48A81882319F0898180644C
:1027C0008983898180688983898160E00E941203FE
:1027D0000F900F90CF91DF910895EF92FF920F939A
:1027E0001F937B018C0120E030E040E05FE40E9419
:1027F000991788238CF0C801B70120E030E040E051
:102800005FE40E9465150E94F9179B01AC012050FE
:1028100030404040504806C0C801B7010E94F91737
:102820009B01AC01B901CA011F910F91FF90EF907C
:102830000895A0E0B0E0EFE1F4E10C941A1ADC0195
:102840002B01FA019C91923008F439C1EB01888187
:10285000823008F433C1943069F4843009F02FC118
:1028600011969C9111978981981709F428C1A8E7BE
:10287000B1E025C1843009F421C18230A9F492303D
:1028800009F01DC19A01AD0188E0EA010990AE018D
:10289000E90109929E018150C1F7E20189811196F7
:1028A0009C918923818308C1923009F407C1129653
:1028B0002D903C901397EB018A819B811496AD90EB
:1028C000BD90CD90DC901797EC80FD800E811F812C
:1028D0009101281B390BB90137FF04C06627772700
:1028E000621B730B603271050CF061C01216130687
:1028F0006CF537014801062E04C0969487947794AE
:1029000067940A94D2F721E030E040E050E004C040
:10291000220F331F441F551F6A95D2F721503040B4
:10292000404050402E213F214023512321153105A5
:102930004105510521F021E030E040E050E079010F
:102940008A01E628F728082919293CC0232BD1F150
:10295000260E371E35014601062E04C09694879434
:10296000779467940A94D2F721E030E040E050E099
:1029700004C0220F331F441F551F6A95D2F7215000
:102980003040404050402A213B214C215D212115FF
:1029900031054105510521F021E030E040E050E0F3
:1029A00059016A01A628B728C828D9280BC0821562
:1029B00093052CF01C01AA24BB24650103C0EE245E
:1029C000FF24870111969C91D20111968C91981742
:1029D00009F445C0992339F0A80197012A193B0948
:1029E0004C095D0906C0A60195012E193F09400B4F
:1029F000510B57FD08C01182338222822483358314
:102A0000468357831DC081E08183338222828827D9
:102A10009927DC01821B930BA40BB50B8483958350
:102A2000A683B7830DC0220F331F441F551F248375
:102A30003583468357838281938101979383828371
:102A40002481358146815781DA01C9010197A109A5
:102A5000B1098F5F9F4FAF4FBF4328F30BC09183E6
:102A600033822282EA0CFB1C0C1D1D1DE482F582C0
:102A70000683178383E080832481358146815781D3
:102A800057FF1AC0C901AA2797FDA095BA2F8170D8
:102A90009070A070B0705695479537952795822B0A
:102AA000932BA42BB52B84839583A683B783828134
:102AB0009381019693838283DF0101C0D201CD010E
:102AC000CDB7DEB7E2E10C94361AA0E2B0E0EBE657
:102AD000F5E10C94261A69837A838B839C832D837A
:102AE0003E834F835887E9E0EE2EF12CEC0EFD1E5D
:102AF000CE010196B7010E9422198E010F5E1F4F71
:102B0000CE010596B8010E9422198A8991E0892791
:102B10008A8BC701B801AE01475E5F4F0E9419144E
:102B20000E944D18A096E6E00C94421AA0E2B0E094
:102B3000ECE9F5E10C94261A69837A838B839C83F4
:102B40002D833E834F835887F9E0EF2EF12CEC0E56
:102B5000FD1ECE010196B7010E9422198E010F5E63
:102B60001F4FCE010596B8010E942219C701B80176
:102B7000AE01475E5F4F0E9419140E944D18A09647
:102B8000E6E00C94421AA0E2B0E0E9ECF5E10C9426
:102B90001A1A69837A838B839C832D833E834F83A8
:102BA0005887CE010196BE01675F7F4F0E942219B0
:102BB000CE010596BE016F5E7F4F0E942219998556
:102BC000923088F089898230C8F0943019F48230CC
:102BD00051F404C0843029F4923081F488E791E004
:102BE000C6C0923049F420E09A858A89981321E082
:102BF0002A87CE010996BBC0823049F420E09A852D
:102C00008A89981321E02A8BCE014196B0C02D8489
:102C10003E844F8458886D887E888F88988CEE24F7
:102C2000FF248701AA24BB24650140E050E060E056
:102C300070E0E0E0F0E0C10181709070892BE9F074
:102C4000E60CF71C081D191D9A01AB012A0D3B1D4E
:102C50004C1D5D1D80E090E0A0E0B0E0E614F704BC
:102C60000805190520F481E090E0A0E0B0E0BA0189
:102C7000A901480F591F6A1F7B1FAA0CBB1CCC1C43
:102C8000DD1C97FE08C081E090E0A0E0B0E0A82A3B
:102C9000B92ACA2ADB2A3196E032F10549F0660CDE
:102CA000771C881C991C5694479437942794C3CF5B
:102CB000FA85EA892B893C898B859C85280F391FE9
:102CC0002E5F3F4F17C0CA0181709070892B61F051
:102CD00016950795F794E79480E090E0A0E0B0E8BF
:102CE000E82AF92A0A2B1B2B769567955795479565
:102CF0002F5F3F4F77FDE7CF0CC0440F551F661F76
:102D0000771F17FD4160EE0CFF1C001F111F2150A3
:102D10003040403090E0590790E0690790E479072F
:102D200060F32B8F3C8FDB01CA018F779070A0700E
:102D3000B07080349105A105B10561F447FD0AC06A
:102D4000E114F1040105110529F0405C5F4F6F4F5C
:102D50007F4F40781A8EFE1711F081E08A8F4D8FD9
:102D60005E8F6F8F78A383E0898FCE0149960E9492
:102D70004D18A096E2E10C94361AA8E1B0E0E3EC1D
:102D8000F6E10C94221A69837A838B839C832D83CA
:102D90003E834F835887B9E0EB2EF12CEC0EFD1EDD
:102DA000CE010196B7010E9422198E010F5E1F4FBE
:102DB000CE010596B8010E9422192985223008F417
:102DC0007EC03989323010F4B8017CC08A859A8976
:102DD00089278A87243011F0223031F4231709F033
:102DE0006EC068E771E06EC0343039F41D861E860F
:102DF0001F86188A1C861B8604C0323021F484E0AA
:102E00008987B7015FC02B853C858B899C89281BEE
:102E1000390B3C872B87ED84FE840F851889AD889C
:102E2000BE88CF88D88CEA14FB040C051D0540F43D
:102E3000EE0CFF1C001F111F215030403C872B87D8
:102E400020E030E040E050E080E090E0A0E0B0E43E
:102E500060E070E0EA14FB040C051D0540F0282B2F
:102E6000392B4A2B5B2BEA18FB080C091D09B69578
:102E7000A79597958795EE0CFF1C001F111F6F5F9C
:102E80007F4F6F31710531F7DA01C9018F7790708B
:102E9000A070B07080349105A105B10561F427FDE3
:102EA0000AC0E114F1040105110529F0205C3F4F2F
:102EB0004F4F5F4F20782D873E874F87588BBE013D
:102EC000675F7F4FCB010E944D186896EAE00C9433
:102ED0003E1AA8E1B0E0EFE6F7E10C94261A698308
:102EE0007A838B839C832D833E834F83588789E02D
:102EF000E82EF12CEC0EFD1ECE010196B7010E94CA
:102F000022198E010F5E1F4FCE010596B8010E9457
:102F100022198985823040F08989823028F0C701E2
:102F2000B8010E949A1901C08FEF6896E6E00C94F0
:102F3000421AA8E1B0E0EFE9F7E10C94261A6983A0
:102F40007A838B839C832D833E834F83588789E0CC
:102F5000E82EF12CEC0EFD1ECE010196B7010E9469
:102F600022198E010F5E1F4FCE010596B8010E94F7
:102F700022198985823040F08989823028F0C70182
:102F8000B8010E949A1901C08FEF6896E6E00C9490
:102F9000421AA8E1B0E0EFECF7E10C94261A69833D
:102FA0007A838B839C832D833E834F83588789E06C
:102FB000E82EF12CEC0EFD1ECE010196B7010E9409
:102FC00022198E010F5E1F4FCE010596B8010E9497
:102FD00022198985823040F08989823028F0C70122
:102FE000B8010E949A1901C081E06896E6E00C944D
:102FF000421AACE0B0E0EFEFF7E10C942A1A6983D3
:103000007A838B839C83CE010196BE016B5F7F4FD9
:103010000E9422198D81823061F1823050F184301A
:1030200021F48E81882351F12EC02F81388537FD00
:1030300020C06E812F3131051CF06623F9F023C0CA
:103040008EE190E0821B930B29853A854B855C8548
:1030500004C056954795379527958A95D2F76623EC
:10306000B1F050954095309521953F4F4F4F5F4FB0
:103070000EC020E030E040E050E009C02FEF3FEF0D
:103080004FEF5FE704C020E030E040E050E8B901D6
:10309000CA012C96E2E00C94461ADF92EF92FF925E
:1030A0000F931F93FC01E480F58006811781D18086
:1030B0008081823048F480E090E0A0E1B0E0E82A2E
:1030C000F92A0A2B1B2BA5C0843009F49FC082303B
:1030D00021F4EE24FF24870105C0E114F104010569
:1030E000110519F4E0E0F0E096C0628173819FEF72
:1030F000623879070CF05BC022E83FEF261B370BE4
:103100002A3131052CF020E030E040E050E02AC0C8
:10311000B801A701022E04C076956795579547958B
:103120000A94D2F781E090E0A0E0B0E004C0880FFC
:10313000991FAA1FBB1F2A95D2F70197A109B109B0
:103140008E219F21A023B1230097A105B10521F075
:1031500081E090E0A0E0B0E09A01AB01282B392B90
:103160004A2B5B2BDA01C9018F779070A070B07089
:1031700080349105A105B10539F427FF09C0205C11
:103180003F4F4F4F5F4F04C0215C3F4F4F4F5F4F4A
:10319000E0E0F0E02030A0E03A07A0E04A07A0E439
:1031A0005A0710F0E1E0F0E079018A0127C06038A9
:1031B000710564F5FB01E158FF4FD801C7018F7716
:1031C0009070A070B07080349105A105B10539F4FC
:1031D000E7FE0DC080E490E0A0E0B0E004C08FE323
:1031E00090E0A0E0B0E0E80EF91E0A1F1B1F17FFD9
:1031F00005C016950795F794E794319687E01695E4
:103200000795F794E7948A95D1F705C0EE24FF243B
:103210008701EFEFF0E06E2F679566276795902F97
:103220009F77D794DD24D7948E2F8695492F462BF0
:10323000582F5D29B701CA011F910F91FF90EF90A0
:10324000DF900895FC01DB01408151812281622FD2
:103250006F7770E0221F2227221F9381892F880F0A
:10326000822B282F30E0991F9927991F11969C9344
:10327000119721153105A9F5411551056105710514
:1032800011F482E037C082E89FEF13969C938E93EF
:1032900012979A01AB0167E0220F331F441F551F9D
:1032A0006A95D1F783E08C930DC0220F331F441F22
:1032B000551F12968D919C911397019713969C938D
:1032C0008E931297203080E0380780E0480780E432
:1032D000580758F314962D933D934D935C9317978D
:1032E00008952F3F310579F44115510561057105A8
:1032F00019F484E08C93089564FF03C081E08C93FB
:1033000012C01C9210C02F57304013963C932E933E
:10331000129783E08C9387E0440F551F661F771F39
:103320008A95D1F7706414964D935D936D937C9359
:10333000179708951F93DC01FB019C91923008F4CC
:1033400047C08081823008F443C0943051F4119614
:103350001C91843099F58181682F70E0611B71099F
:103360003FC0843021F0923031F48230B9F1818154
:10337000882389F12DC011961C9111978230F1F0AC
:1033800081811817D9F412962D913C91139782815F
:1033900093818217930794F028173907BCF014968D
:1033A0008D919D910D90BC91A02D248135814681F8
:1033B0005781281739074A075B0718F4112341F092
:1033C0000AC082179307A407B50740F4112319F028
:1033D00061E070E005C06FEF7FEF02C060E070E079
:1033E000CB011F91089597FB092E07260AD077FD80
:1033F00004D00CD006D000201AF4709561957F4F50
:103400000895F6F7909581959F4F0895AA1BBB1BD1
:1034100051E107C0AA1FBB1FA617B70710F0A61BD4
:10342000B70B881F991F5A95A9F780959095BC01F5
:10343000CD0108952F923F924F925F926F927F92AB
:103440008F929F92AF92BF92CF92DF92EF92FF92B4
:103450000F931F93CF93DF93CDB7DEB7CA1BDB0B60
:103460000FB6F894DEBF0FBECDBF09942A88398805
:1034700048885F846E847D848C849B84AA84B9840C
:10348000C884DF80EE80FD800C811B81AA81B98118
:10349000CE0FD11D0FB6F894DEBF0FBECDBFED012C
:0634A0000895F894FFCF2F
:1034A60045787465726E616C20454550524F4D00EB
:1034B60054657374005772697474696E672E2E2E84
:1034C600005772697465204661696C656420210045
:1034D600416464657373203D200057726974746596
:1034E6006E203831393262797465730056657269B7
:1034F6006679696E67202E2E2E005665726966798A
:10350600204661696C65640057726974652053755D
:103516006363657373202100000000000000000053
:00000001FF
